{
  "contractName": "NftMarket",
  "abi": [
    {
      "inputs": [],
      "stateMutability": "nonpayable",
      "type": "constructor"
    },
    {
      "anonymous": false,
      "inputs": [
        {
          "indexed": true,
          "internalType": "address",
          "name": "owner",
          "type": "address"
        },
        {
          "indexed": true,
          "internalType": "address",
          "name": "approved",
          "type": "address"
        },
        {
          "indexed": true,
          "internalType": "uint256",
          "name": "tokenId",
          "type": "uint256"
        }
      ],
      "name": "Approval",
      "type": "event"
    },
    {
      "anonymous": false,
      "inputs": [
        {
          "indexed": true,
          "internalType": "address",
          "name": "owner",
          "type": "address"
        },
        {
          "indexed": true,
          "internalType": "address",
          "name": "operator",
          "type": "address"
        },
        {
          "indexed": false,
          "internalType": "bool",
          "name": "approved",
          "type": "bool"
        }
      ],
      "name": "ApprovalForAll",
      "type": "event"
    },
    {
      "anonymous": false,
      "inputs": [
        {
          "indexed": true,
          "internalType": "address",
          "name": "previousOwner",
          "type": "address"
        },
        {
          "indexed": true,
          "internalType": "address",
          "name": "newOwner",
          "type": "address"
        }
      ],
      "name": "OwnershipTransferred",
      "type": "event"
    },
    {
      "anonymous": false,
      "inputs": [
        {
          "indexed": false,
          "internalType": "uint256",
          "name": "tokenId",
          "type": "uint256"
        },
        {
          "indexed": false,
          "internalType": "uint256",
          "name": "price",
          "type": "uint256"
        },
        {
          "indexed": false,
          "internalType": "address",
          "name": "creator",
          "type": "address"
        },
        {
          "indexed": false,
          "internalType": "bool",
          "name": "isListed",
          "type": "bool"
        }
      ],
      "name": "TokenCreated",
      "type": "event"
    },
    {
      "anonymous": false,
      "inputs": [
        {
          "indexed": true,
          "internalType": "address",
          "name": "from",
          "type": "address"
        },
        {
          "indexed": true,
          "internalType": "address",
          "name": "to",
          "type": "address"
        },
        {
          "indexed": true,
          "internalType": "uint256",
          "name": "tokenId",
          "type": "uint256"
        }
      ],
      "name": "Transfer",
      "type": "event"
    },
    {
      "inputs": [
        {
          "internalType": "address",
          "name": "to",
          "type": "address"
        },
        {
          "internalType": "uint256",
          "name": "tokenId",
          "type": "uint256"
        }
      ],
      "name": "approve",
      "outputs": [],
      "stateMutability": "nonpayable",
      "type": "function"
    },
    {
      "inputs": [
        {
          "internalType": "address",
          "name": "owner",
          "type": "address"
        }
      ],
      "name": "balanceOf",
      "outputs": [
        {
          "internalType": "uint256",
          "name": "",
          "type": "uint256"
        }
      ],
      "stateMutability": "view",
      "type": "function",
      "constant": true
    },
    {
      "inputs": [
        {
          "internalType": "uint256",
          "name": "tokenId",
          "type": "uint256"
        }
      ],
      "name": "getApproved",
      "outputs": [
        {
          "internalType": "address",
          "name": "",
          "type": "address"
        }
      ],
      "stateMutability": "view",
      "type": "function",
      "constant": true
    },
    {
      "inputs": [
        {
          "internalType": "address",
          "name": "owner",
          "type": "address"
        },
        {
          "internalType": "address",
          "name": "operator",
          "type": "address"
        }
      ],
      "name": "isApprovedForAll",
      "outputs": [
        {
          "internalType": "bool",
          "name": "",
          "type": "bool"
        }
      ],
      "stateMutability": "view",
      "type": "function",
      "constant": true
    },
    {
      "inputs": [],
      "name": "listingPrice",
      "outputs": [
        {
          "internalType": "uint256",
          "name": "",
          "type": "uint256"
        }
      ],
      "stateMutability": "view",
      "type": "function",
      "constant": true
    },
    {
      "inputs": [],
      "name": "name",
      "outputs": [
        {
          "internalType": "string",
          "name": "",
          "type": "string"
        }
      ],
      "stateMutability": "view",
      "type": "function",
      "constant": true
    },
    {
      "inputs": [],
      "name": "owner",
      "outputs": [
        {
          "internalType": "address",
          "name": "",
          "type": "address"
        }
      ],
      "stateMutability": "view",
      "type": "function",
      "constant": true
    },
    {
      "inputs": [
        {
          "internalType": "uint256",
          "name": "tokenId",
          "type": "uint256"
        }
      ],
      "name": "ownerOf",
      "outputs": [
        {
          "internalType": "address",
          "name": "",
          "type": "address"
        }
      ],
      "stateMutability": "view",
      "type": "function",
      "constant": true
    },
    {
      "inputs": [],
      "name": "renounceOwnership",
      "outputs": [],
      "stateMutability": "nonpayable",
      "type": "function"
    },
    {
      "inputs": [
        {
          "internalType": "address",
          "name": "from",
          "type": "address"
        },
        {
          "internalType": "address",
          "name": "to",
          "type": "address"
        },
        {
          "internalType": "uint256",
          "name": "tokenId",
          "type": "uint256"
        }
      ],
      "name": "safeTransferFrom",
      "outputs": [],
      "stateMutability": "nonpayable",
      "type": "function"
    },
    {
      "inputs": [
        {
          "internalType": "address",
          "name": "from",
          "type": "address"
        },
        {
          "internalType": "address",
          "name": "to",
          "type": "address"
        },
        {
          "internalType": "uint256",
          "name": "tokenId",
          "type": "uint256"
        },
        {
          "internalType": "bytes",
          "name": "_data",
          "type": "bytes"
        }
      ],
      "name": "safeTransferFrom",
      "outputs": [],
      "stateMutability": "nonpayable",
      "type": "function"
    },
    {
      "inputs": [
        {
          "internalType": "address",
          "name": "operator",
          "type": "address"
        },
        {
          "internalType": "bool",
          "name": "approved",
          "type": "bool"
        }
      ],
      "name": "setApprovalForAll",
      "outputs": [],
      "stateMutability": "nonpayable",
      "type": "function"
    },
    {
      "inputs": [
        {
          "internalType": "bytes4",
          "name": "interfaceId",
          "type": "bytes4"
        }
      ],
      "name": "supportsInterface",
      "outputs": [
        {
          "internalType": "bool",
          "name": "",
          "type": "bool"
        }
      ],
      "stateMutability": "view",
      "type": "function",
      "constant": true
    },
    {
      "inputs": [],
      "name": "symbol",
      "outputs": [
        {
          "internalType": "string",
          "name": "",
          "type": "string"
        }
      ],
      "stateMutability": "view",
      "type": "function",
      "constant": true
    },
    {
      "inputs": [
        {
          "internalType": "uint256",
          "name": "tokenId",
          "type": "uint256"
        }
      ],
      "name": "tokenURI",
      "outputs": [
        {
          "internalType": "string",
          "name": "",
          "type": "string"
        }
      ],
      "stateMutability": "view",
      "type": "function",
      "constant": true
    },
    {
      "inputs": [
        {
          "internalType": "address",
          "name": "from",
          "type": "address"
        },
        {
          "internalType": "address",
          "name": "to",
          "type": "address"
        },
        {
          "internalType": "uint256",
          "name": "tokenId",
          "type": "uint256"
        }
      ],
      "name": "transferFrom",
      "outputs": [],
      "stateMutability": "nonpayable",
      "type": "function"
    },
    {
      "inputs": [
        {
          "internalType": "address",
          "name": "newOwner",
          "type": "address"
        }
      ],
      "name": "transferOwnership",
      "outputs": [],
      "stateMutability": "nonpayable",
      "type": "function"
    },
    {
      "inputs": [
        {
          "internalType": "uint256",
          "name": "newPrice",
          "type": "uint256"
        }
      ],
      "name": "setListingPrice",
      "outputs": [],
      "stateMutability": "nonpayable",
      "type": "function"
    },
    {
      "inputs": [
        {
          "internalType": "uint256",
          "name": "tokenId",
          "type": "uint256"
        }
      ],
      "name": "getToken",
      "outputs": [
        {
          "components": [
            {
              "internalType": "uint256",
              "name": "tokenId",
              "type": "uint256"
            },
            {
              "internalType": "uint256",
              "name": "price",
              "type": "uint256"
            },
            {
              "internalType": "address",
              "name": "creator",
              "type": "address"
            },
            {
              "internalType": "bool",
              "name": "isListed",
              "type": "bool"
            }
          ],
          "internalType": "struct NftMarket.Token",
          "name": "",
          "type": "tuple"
        }
      ],
      "stateMutability": "view",
      "type": "function",
      "constant": true
    },
    {
      "inputs": [],
      "name": "listedTokensCount",
      "outputs": [
        {
          "internalType": "uint256",
          "name": "",
          "type": "uint256"
        }
      ],
      "stateMutability": "view",
      "type": "function",
      "constant": true
    },
    {
      "inputs": [
        {
          "internalType": "string",
          "name": "tokenURI",
          "type": "string"
        }
      ],
      "name": "tokenURIExists",
      "outputs": [
        {
          "internalType": "bool",
          "name": "",
          "type": "bool"
        }
      ],
      "stateMutability": "view",
      "type": "function",
      "constant": true
    },
    {
      "inputs": [],
      "name": "totalSupply",
      "outputs": [
        {
          "internalType": "uint256",
          "name": "",
          "type": "uint256"
        }
      ],
      "stateMutability": "view",
      "type": "function",
      "constant": true
    },
    {
      "inputs": [
        {
          "internalType": "uint256",
          "name": "index",
          "type": "uint256"
        }
      ],
      "name": "getTokenByIndex",
      "outputs": [
        {
          "internalType": "uint256",
          "name": "",
          "type": "uint256"
        }
      ],
      "stateMutability": "view",
      "type": "function",
      "constant": true
    },
    {
      "inputs": [
        {
          "internalType": "address",
          "name": "owner",
          "type": "address"
        },
        {
          "internalType": "uint256",
          "name": "index",
          "type": "uint256"
        }
      ],
      "name": "getTokenByOwnerIndex",
      "outputs": [
        {
          "internalType": "uint256",
          "name": "",
          "type": "uint256"
        }
      ],
      "stateMutability": "view",
      "type": "function",
      "constant": true
    },
    {
      "inputs": [],
      "name": "getAllTokensOnSale",
      "outputs": [
        {
          "components": [
            {
              "internalType": "uint256",
              "name": "tokenId",
              "type": "uint256"
            },
            {
              "internalType": "uint256",
              "name": "price",
              "type": "uint256"
            },
            {
              "internalType": "address",
              "name": "creator",
              "type": "address"
            },
            {
              "internalType": "bool",
              "name": "isListed",
              "type": "bool"
            }
          ],
          "internalType": "struct NftMarket.Token[]",
          "name": "",
          "type": "tuple[]"
        }
      ],
      "stateMutability": "view",
      "type": "function",
      "constant": true
    },
    {
      "inputs": [],
      "name": "getOwnedTokens",
      "outputs": [
        {
          "components": [
            {
              "internalType": "uint256",
              "name": "tokenId",
              "type": "uint256"
            },
            {
              "internalType": "uint256",
              "name": "price",
              "type": "uint256"
            },
            {
              "internalType": "address",
              "name": "creator",
              "type": "address"
            },
            {
              "internalType": "bool",
              "name": "isListed",
              "type": "bool"
            }
          ],
          "internalType": "struct NftMarket.Token[]",
          "name": "",
          "type": "tuple[]"
        }
      ],
      "stateMutability": "view",
      "type": "function",
      "constant": true
    },
    {
      "inputs": [
        {
          "internalType": "uint256",
          "name": "tokenId",
          "type": "uint256"
        }
      ],
      "name": "burnToken",
      "outputs": [],
      "stateMutability": "nonpayable",
      "type": "function"
    },
    {
      "inputs": [
        {
          "internalType": "string",
          "name": "tokenURI",
          "type": "string"
        },
        {
          "internalType": "uint256",
          "name": "price",
          "type": "uint256"
        }
      ],
      "name": "mintToken",
      "outputs": [
        {
          "internalType": "uint256",
          "name": "",
          "type": "uint256"
        }
      ],
      "stateMutability": "payable",
      "type": "function",
      "payable": true
    },
    {
      "inputs": [
        {
          "internalType": "uint256",
          "name": "tokenId",
          "type": "uint256"
        }
      ],
      "name": "buyToken",
      "outputs": [],
      "stateMutability": "payable",
      "type": "function",
      "payable": true
    },
    {
      "inputs": [
        {
          "internalType": "uint256",
          "name": "tokenId",
          "type": "uint256"
        },
        {
          "internalType": "uint256",
          "name": "newPrice",
          "type": "uint256"
        }
      ],
      "name": "listToken",
      "outputs": [],
      "stateMutability": "payable",
      "type": "function",
      "payable": true
    }
  ],
  "bytecode": "0x60806040526658d15e176280006008553480156200001c57600080fd5b506040518060400160405280600c81526020017f4372656174757265734e465400000000000000000000000000000000000000008152506040518060400160405280600481526020017f434e4654000000000000000000000000000000000000000000000000000000008152508160009080519060200190620000a1929190620001b1565b508060019080519060200190620000ba929190620001b1565b505050620000dd620000d1620000e360201b60201c565b620000eb60201b60201c565b620002c5565b600033905090565b6000600760009054906101000a900473ffffffffffffffffffffffffffffffffffffffff16905081600760006101000a81548173ffffffffffffffffffffffffffffffffffffffff021916908373ffffffffffffffffffffffffffffffffffffffff1602179055508173ffffffffffffffffffffffffffffffffffffffff168173ffffffffffffffffffffffffffffffffffffffff167f8be0079c531659141344cd1fd0a4f28419497f9722a3daafe3b4186f6b6457e060405160405180910390a35050565b828054620001bf9062000290565b90600052602060002090601f016020900481019282620001e357600085556200022f565b82601f10620001fe57805160ff19168380011785556200022f565b828001600101855582156200022f579182015b828111156200022e57825182559160200191906001019062000211565b5b5090506200023e919062000242565b5090565b5b808211156200025d57600081600090555060010162000243565b5090565b7f4e487b7100000000000000000000000000000000000000000000000000000000600052602260045260246000fd5b60006002820490506001821680620002a957607f821691505b602082108103620002bf57620002be62000261565b5b50919050565b614ca580620002d56000396000f3fe6080604052600436106101cd5760003560e01c8063715018a6116100f7578063ae6b016c11610095578063c87b56dd11610064578063c87b56dd14610673578063e4b50cb8146106b0578063e985e9c5146106ed578063f2fde38b1461072a576101cd565b8063ae6b016c146105c4578063b88d4fde146105ef578063c046372c14610618578063c78f19f914610648576101cd565b80637c726b69116100d15780637c726b691461051c5780638da5cb5b1461054557806395d89b4114610570578063a22cb4651461059b576101cd565b8063715018a6146104c057806375c1631d146104d75780637b47ec1a146104f3576101cd565b806332a564511161016f57806360820d801161013e57806360820d80146103de5780636352211e14610409578063644b7a431461044657806370a0823114610483576101cd565b806332a56451146103105780633964ed791461033b57806342842e0e1461037857806343d32ae7146103a1576101cd565b8063095ea7b3116101ab578063095ea7b31461027757806318160ddd146102a057806323b872dd146102cb5780632d296bf1146102f4576101cd565b806301ffc9a7146101d257806306fdde031461020f578063081812fc1461023a575b600080fd5b3480156101de57600080fd5b506101f960048036038101906101f4919061321c565b610753565b6040516102069190613264565b60405180910390f35b34801561021b57600080fd5b50610224610835565b6040516102319190613318565b60405180910390f35b34801561024657600080fd5b50610261600480360381019061025c9190613370565b6108c7565b60405161026e91906133de565b60405180910390f35b34801561028357600080fd5b5061029e60048036038101906102999190613425565b61094c565b005b3480156102ac57600080fd5b506102b5610a63565b6040516102c29190613474565b60405180910390f35b3480156102d757600080fd5b506102f260048036038101906102ed919061348f565b610a70565b005b61030e60048036038101906103099190613370565b610ad0565b005b34801561031c57600080fd5b50610325610c38565b6040516103329190613474565b60405180910390f35b34801561034757600080fd5b50610362600480360381019061035d9190613425565b610c49565b60405161036f9190613474565b60405180910390f35b34801561038457600080fd5b5061039f600480360381019061039a919061348f565b610cee565b005b3480156103ad57600080fd5b506103c860048036038101906103c39190613617565b610d0e565b6040516103d59190613264565b60405180910390f35b3480156103ea57600080fd5b506103f3610d43565b6040516104009190613791565b60405180910390f35b34801561041557600080fd5b50610430600480360381019061042b9190613370565b610ea7565b60405161043d91906133de565b60405180910390f35b34801561045257600080fd5b5061046d60048036038101906104689190613370565b610f58565b60405161047a9190613474565b60405180910390f35b34801561048f57600080fd5b506104aa60048036038101906104a591906137b3565b610fc9565b6040516104b79190613474565b60405180910390f35b3480156104cc57600080fd5b506104d5611080565b005b6104f160048036038101906104ec91906137e0565b611108565b005b3480156104ff57600080fd5b5061051a60048036038101906105159190613370565b61127e565b005b34801561052857600080fd5b50610543600480360381019061053e9190613370565b611300565b005b34801561055157600080fd5b5061055a6113c9565b60405161056791906133de565b60405180910390f35b34801561057c57600080fd5b506105856113f3565b6040516105929190613318565b60405180910390f35b3480156105a757600080fd5b506105c260048036038101906105bd919061384c565b611485565b005b3480156105d057600080fd5b506105d961149b565b6040516105e69190613791565b60405180910390f35b3480156105fb57600080fd5b506106166004803603810190610611919061392d565b61162e565b005b610632600480360381019061062d91906139b0565b611690565b60405161063f9190613474565b60405180910390f35b34801561065457600080fd5b5061065d6117a0565b60405161066a9190613474565b60405180910390f35b34801561067f57600080fd5b5061069a60048036038101906106959190613370565b6117a6565b6040516106a79190613318565b60405180910390f35b3480156106bc57600080fd5b506106d760048036038101906106d29190613370565b6118f7565b6040516106e49190613a61565b60405180910390f35b3480156106f957600080fd5b50610714600480360381019061070f9190613a7c565b6119a9565b6040516107219190613264565b60405180910390f35b34801561073657600080fd5b50610751600480360381019061074c91906137b3565b611a3d565b005b60007f80ac58cd000000000000000000000000000000000000000000000000000000007bffffffffffffffffffffffffffffffffffffffffffffffffffffffff1916827bffffffffffffffffffffffffffffffffffffffffffffffffffffffff1916148061081e57507f5b5e139f000000000000000000000000000000000000000000000000000000007bffffffffffffffffffffffffffffffffffffffffffffffffffffffff1916827bffffffffffffffffffffffffffffffffffffffffffffffffffffffff1916145b8061082e575061082d82611b34565b5b9050919050565b60606000805461084490613aeb565b80601f016020809104026020016040519081016040528092919081815260200182805461087090613aeb565b80156108bd5780601f10610892576101008083540402835291602001916108bd565b820191906000526020600020905b8154815290600101906020018083116108a057829003601f168201915b5050505050905090565b60006108d282611b9e565b610911576040517f08c379a000000000000000000000000000000000000000000000000000000000815260040161090890613b8e565b60405180910390fd5b6004600083815260200190815260200160002060009054906101000a900473ffffffffffffffffffffffffffffffffffffffff169050919050565b600061095782610ea7565b90508073ffffffffffffffffffffffffffffffffffffffff168373ffffffffffffffffffffffffffffffffffffffff16036109c7576040517f08c379a00000000000000000000000000000000000000000000000000000000081526004016109be90613c20565b60405180910390fd5b8073ffffffffffffffffffffffffffffffffffffffff166109e6611c0a565b73ffffffffffffffffffffffffffffffffffffffff161480610a155750610a1481610a0f611c0a565b6119a9565b5b610a54576040517f08c379a0000000000000000000000000000000000000000000000000000000008152600401610a4b90613cb2565b60405180910390fd5b610a5e8383611c12565b505050565b6000600f80549050905090565b610a81610a7b611c0a565b82611ccb565b610ac0576040517f08c379a0000000000000000000000000000000000000000000000000000000008152600401610ab790613d44565b60405180910390fd5b610acb838383611da9565b505050565b6000600c60008381526020019081526020016000206001015490506000610af683610ea7565b90503373ffffffffffffffffffffffffffffffffffffffff168173ffffffffffffffffffffffffffffffffffffffff1603610b66576040517f08c379a0000000000000000000000000000000000000000000000000000000008152600401610b5d90613db0565b60405180910390fd5b813414610ba8576040517f08c379a0000000000000000000000000000000000000000000000000000000008152600401610b9f90613e1c565b60405180910390fd5b6000600c600085815260200190815260200160002060020160146101000a81548160ff021916908315150217905550610be1600961200f565b610bec813385611da9565b8073ffffffffffffffffffffffffffffffffffffffff166108fc349081150290604051600060405180830381858888f19350505050158015610c32573d6000803e3d6000fd5b50505050565b6000610c44600961206b565b905090565b6000610c5483610fc9565b8210610c95576040517f08c379a0000000000000000000000000000000000000000000000000000000008152600401610c8c90613e88565b60405180910390fd5b600d60008473ffffffffffffffffffffffffffffffffffffffff1673ffffffffffffffffffffffffffffffffffffffff168152602001908152602001600020600083815260200190815260200160002054905092915050565b610d098383836040518060200160405280600081525061162e565b505050565b6000600b82604051610d209190613ee4565b908152602001604051809103902060009054906101000a900460ff169050919050565b60606000610d5033610fc9565b905060008167ffffffffffffffff811115610d6e57610d6d6134ec565b5b604051908082528060200260200182016040528015610da757816020015b610d9461308d565b815260200190600190039081610d8c5790505b50905060005b82811015610e9e576000610dc13383610c49565b90506000600c600083815260200190815260200160002090508060405180608001604052908160008201548152602001600182015481526020016002820160009054906101000a900473ffffffffffffffffffffffffffffffffffffffff1673ffffffffffffffffffffffffffffffffffffffff1673ffffffffffffffffffffffffffffffffffffffff1681526020016002820160149054906101000a900460ff161515151581525050848481518110610e7e57610e7d613efb565b5b602002602001018190525050508080610e9690613f59565b915050610dad565b50809250505090565b6000806002600084815260200190815260200160002060009054906101000a900473ffffffffffffffffffffffffffffffffffffffff169050600073ffffffffffffffffffffffffffffffffffffffff168173ffffffffffffffffffffffffffffffffffffffff1603610f4f576040517f08c379a0000000000000000000000000000000000000000000000000000000008152600401610f4690614013565b60405180910390fd5b80915050919050565b6000610f62610a63565b8210610fa3576040517f08c379a0000000000000000000000000000000000000000000000000000000008152600401610f9a90613e88565b60405180910390fd5b600f8281548110610fb757610fb6613efb565b5b90600052602060002001549050919050565b60008073ffffffffffffffffffffffffffffffffffffffff168273ffffffffffffffffffffffffffffffffffffffff1603611039576040517f08c379a0000000000000000000000000000000000000000000000000000000008152600401611030906140a5565b60405180910390fd5b600360008373ffffffffffffffffffffffffffffffffffffffff1673ffffffffffffffffffffffffffffffffffffffff168152602001908152602001600020549050919050565b611088611c0a565b73ffffffffffffffffffffffffffffffffffffffff166110a66113c9565b73ffffffffffffffffffffffffffffffffffffffff16146110fc576040517f08c379a00000000000000000000000000000000000000000000000000000000081526004016110f390614111565b60405180910390fd5b6111066000612079565b565b3373ffffffffffffffffffffffffffffffffffffffff1661112883610ea7565b73ffffffffffffffffffffffffffffffffffffffff161461117e576040517f08c379a0000000000000000000000000000000000000000000000000000000008152600401611175906141a3565b60405180910390fd5b60085434146111c2576040517f08c379a00000000000000000000000000000000000000000000000000000000081526004016111b990614235565b60405180910390fd5b600c600083815260200190815260200160002060020160149054906101000a900460ff1615611226576040517f08c379a000000000000000000000000000000000000000000000000000000000815260040161121d906142a1565b60405180910390fd5b6001600c600084815260200190815260200160002060020160146101000a81548160ff02191690831515021790555080600c60008481526020019081526020016000206001018190555061127a600961213f565b5050565b3373ffffffffffffffffffffffffffffffffffffffff1661129e82610ea7565b73ffffffffffffffffffffffffffffffffffffffff16146112f4576040517f08c379a00000000000000000000000000000000000000000000000000000000081526004016112eb906141a3565b60405180910390fd5b6112fd81612155565b50565b611308611c0a565b73ffffffffffffffffffffffffffffffffffffffff166113266113c9565b73ffffffffffffffffffffffffffffffffffffffff161461137c576040517f08c379a000000000000000000000000000000000000000000000000000000000815260040161137390614111565b60405180910390fd5b600081116113bf576040517f08c379a00000000000000000000000000000000000000000000000000000000081526004016113b69061430d565b60405180910390fd5b8060088190555050565b6000600760009054906101000a900473ffffffffffffffffffffffffffffffffffffffff16905090565b60606001805461140290613aeb565b80601f016020809104026020016040519081016040528092919081815260200182805461142e90613aeb565b801561147b5780601f106114505761010080835404028352916020019161147b565b820191906000526020600020905b81548152906001019060200180831161145e57829003601f168201915b5050505050905090565b611497611490611c0a565b83836121a8565b5050565b606060006114a7610a63565b90506000806114b6600961206b565b67ffffffffffffffff8111156114cf576114ce6134ec565b5b60405190808252806020026020018201604052801561150857816020015b6114f561308d565b8152602001906001900390816114ed5790505b50905060005b8381101561162457600061152182610f58565b90506000600c600083815260200190815260200160002090508060020160149054906101000a900460ff161561160f578060405180608001604052908160008201548152602001600182015481526020016002820160009054906101000a900473ffffffffffffffffffffffffffffffffffffffff1673ffffffffffffffffffffffffffffffffffffffff1673ffffffffffffffffffffffffffffffffffffffff1681526020016002820160149054906101000a900460ff1615151515815250508486815181106115f5576115f4613efb565b5b6020026020010181905250848061160b90613f59565b9550505b5050808061161c90613f59565b91505061150e565b5080935050505090565b61163f611639611c0a565b83611ccb565b61167e576040517f08c379a000000000000000000000000000000000000000000000000000000000815260040161167590613d44565b60405180910390fd5b61168a84848484612314565b50505050565b600061169b83610d0e565b156116db576040517f08c379a00000000000000000000000000000000000000000000000000000000081526004016116d290614379565b60405180910390fd5b600854341461171f576040517f08c379a000000000000000000000000000000000000000000000000000000000815260040161171690614235565b60405180910390fd5b611729600a61213f565b611733600961213f565b600061173f600a61206b565b905061174b3382612370565b611755818561238e565b6001600b856040516117679190613ee4565b908152602001604051809103902060006101000a81548160ff0219169083151502179055506117968184612402565b8091505092915050565b60085481565b60606117b182611b9e565b6117f0576040517f08c379a00000000000000000000000000000000000000000000000000000000081526004016117e79061440b565b60405180910390fd5b600060066000848152602001908152602001600020805461181090613aeb565b80601f016020809104026020016040519081016040528092919081815260200182805461183c90613aeb565b80156118895780601f1061185e57610100808354040283529160200191611889565b820191906000526020600020905b81548152906001019060200180831161186c57829003601f168201915b50505050509050600061189a612552565b905060008151036118af5781925050506118f2565b6000825111156118e45780826040516020016118cc92919061442b565b604051602081830303815290604052925050506118f2565b6118ed84612569565b925050505b919050565b6118ff61308d565b600c600083815260200190815260200160002060405180608001604052908160008201548152602001600182015481526020016002820160009054906101000a900473ffffffffffffffffffffffffffffffffffffffff1673ffffffffffffffffffffffffffffffffffffffff1673ffffffffffffffffffffffffffffffffffffffff1681526020016002820160149054906101000a900460ff1615151515815250509050919050565b6000600560008473ffffffffffffffffffffffffffffffffffffffff1673ffffffffffffffffffffffffffffffffffffffff16815260200190815260200160002060008373ffffffffffffffffffffffffffffffffffffffff1673ffffffffffffffffffffffffffffffffffffffff16815260200190815260200160002060009054906101000a900460ff16905092915050565b611a45611c0a565b73ffffffffffffffffffffffffffffffffffffffff16611a636113c9565b73ffffffffffffffffffffffffffffffffffffffff1614611ab9576040517f08c379a0000000000000000000000000000000000000000000000000000000008152600401611ab090614111565b60405180910390fd5b600073ffffffffffffffffffffffffffffffffffffffff168173ffffffffffffffffffffffffffffffffffffffff1603611b28576040517f08c379a0000000000000000000000000000000000000000000000000000000008152600401611b1f906144c1565b60405180910390fd5b611b3181612079565b50565b60007f01ffc9a7000000000000000000000000000000000000000000000000000000007bffffffffffffffffffffffffffffffffffffffffffffffffffffffff1916827bffffffffffffffffffffffffffffffffffffffffffffffffffffffff1916149050919050565b60008073ffffffffffffffffffffffffffffffffffffffff166002600084815260200190815260200160002060009054906101000a900473ffffffffffffffffffffffffffffffffffffffff1673ffffffffffffffffffffffffffffffffffffffff1614159050919050565b600033905090565b816004600083815260200190815260200160002060006101000a81548173ffffffffffffffffffffffffffffffffffffffff021916908373ffffffffffffffffffffffffffffffffffffffff160217905550808273ffffffffffffffffffffffffffffffffffffffff16611c8583610ea7565b73ffffffffffffffffffffffffffffffffffffffff167f8c5be1e5ebec7d5bd14f71427d1e84f3dd0314c0f7b2291e5b200ac8c7c3b92560405160405180910390a45050565b6000611cd682611b9e565b611d15576040517f08c379a0000000000000000000000000000000000000000000000000000000008152600401611d0c90614553565b60405180910390fd5b6000611d2083610ea7565b90508073ffffffffffffffffffffffffffffffffffffffff168473ffffffffffffffffffffffffffffffffffffffff161480611d625750611d6181856119a9565b5b80611da057508373ffffffffffffffffffffffffffffffffffffffff16611d88846108c7565b73ffffffffffffffffffffffffffffffffffffffff16145b91505092915050565b8273ffffffffffffffffffffffffffffffffffffffff16611dc982610ea7565b73ffffffffffffffffffffffffffffffffffffffff1614611e1f576040517f08c379a0000000000000000000000000000000000000000000000000000000008152600401611e16906145e5565b60405180910390fd5b600073ffffffffffffffffffffffffffffffffffffffff168273ffffffffffffffffffffffffffffffffffffffff1603611e8e576040517f08c379a0000000000000000000000000000000000000000000000000000000008152600401611e8590614677565b60405180910390fd5b611e99838383612610565b611ea4600082611c12565b6001600360008573ffffffffffffffffffffffffffffffffffffffff1673ffffffffffffffffffffffffffffffffffffffff1681526020019081526020016000206000828254611ef49190614697565b925050819055506001600360008473ffffffffffffffffffffffffffffffffffffffff1673ffffffffffffffffffffffffffffffffffffffff1681526020019081526020016000206000828254611f4b91906146cb565b92505081905550816002600083815260200190815260200160002060006101000a81548173ffffffffffffffffffffffffffffffffffffffff021916908373ffffffffffffffffffffffffffffffffffffffff160217905550808273ffffffffffffffffffffffffffffffffffffffff168473ffffffffffffffffffffffffffffffffffffffff167fddf252ad1be2c89b69c2b068fc378daa952ba7f163c4a11628f55a4df523b3ef60405160405180910390a461200a838383612722565b505050565b6000816000015490506000811161205b576040517f08c379a00000000000000000000000000000000000000000000000000000000081526004016120529061476d565b60405180910390fd5b6001810382600001819055505050565b600081600001549050919050565b6000600760009054906101000a900473ffffffffffffffffffffffffffffffffffffffff16905081600760006101000a81548173ffffffffffffffffffffffffffffffffffffffff021916908373ffffffffffffffffffffffffffffffffffffffff1602179055508173ffffffffffffffffffffffffffffffffffffffff168173ffffffffffffffffffffffffffffffffffffffff167f8be0079c531659141344cd1fd0a4f28419497f9722a3daafe3b4186f6b6457e060405160405180910390a35050565b6001816000016000828254019250508190555050565b61215e81612727565b600060066000838152602001908152602001600020805461217e90613aeb565b9050146121a5576006600082815260200190815260200160002060006121a491906130cd565b5b50565b8173ffffffffffffffffffffffffffffffffffffffff168373ffffffffffffffffffffffffffffffffffffffff1603612216576040517f08c379a000000000000000000000000000000000000000000000000000000000815260040161220d906147d9565b60405180910390fd5b80600560008573ffffffffffffffffffffffffffffffffffffffff1673ffffffffffffffffffffffffffffffffffffffff16815260200190815260200160002060008473ffffffffffffffffffffffffffffffffffffffff1673ffffffffffffffffffffffffffffffffffffffff16815260200190815260200160002060006101000a81548160ff0219169083151502179055508173ffffffffffffffffffffffffffffffffffffffff168373ffffffffffffffffffffffffffffffffffffffff167f17307eab39ab6107e8899845ad3d59bd9653f200f220920489ca2b5937696c31836040516123079190613264565b60405180910390a3505050565b61231f848484611da9565b61232b84848484612844565b61236a576040517f08c379a00000000000000000000000000000000000000000000000000000000081526004016123619061486b565b60405180910390fd5b50505050565b61238a8282604051806020016040528060008152506129cb565b5050565b61239782611b9e565b6123d6576040517f08c379a00000000000000000000000000000000000000000000000000000000081526004016123cd906148fd565b60405180910390fd5b806006600084815260200190815260200160002090805190602001906123fd92919061310d565b505050565b60008111612445576040517f08c379a000000000000000000000000000000000000000000000000000000000815260040161243c9061430d565b60405180910390fd5b60405180608001604052808381526020018281526020013373ffffffffffffffffffffffffffffffffffffffff16815260200160011515815250600c6000848152602001908152602001600020600082015181600001556020820151816001015560408201518160020160006101000a81548173ffffffffffffffffffffffffffffffffffffffff021916908373ffffffffffffffffffffffffffffffffffffffff16021790555060608201518160020160146101000a81548160ff0219169083151502179055509050507fcc6077a60566d56db6e89bb04f1bdf4b248944aef97cefebf65a5e10833cb2658282336001604051612546949392919061491d565b60405180910390a15050565b606060405180602001604052806000815250905090565b606061257482611b9e565b6125b3576040517f08c379a00000000000000000000000000000000000000000000000000000000081526004016125aa906149d4565b60405180910390fd5b60006125bd612552565b905060008151116125dd5760405180602001604052806000815250612608565b806125e784612a26565b6040516020016125f892919061442b565b6040516020818303038152906040525b915050919050565b61261b838383612b86565b600073ffffffffffffffffffffffffffffffffffffffff168373ffffffffffffffffffffffffffffffffffffffff160361265d5761265881612b8b565b61269c565b8173ffffffffffffffffffffffffffffffffffffffff168373ffffffffffffffffffffffffffffffffffffffff161461269b5761269a8382612bd4565b5b5b600073ffffffffffffffffffffffffffffffffffffffff168273ffffffffffffffffffffffffffffffffffffffff16036126de576126d981612d41565b61271d565b8273ffffffffffffffffffffffffffffffffffffffff168273ffffffffffffffffffffffffffffffffffffffff161461271c5761271b8282612e12565b5b5b505050565b505050565b600061273282610ea7565b905061274081600084612610565b61274b600083611c12565b6001600360008373ffffffffffffffffffffffffffffffffffffffff1673ffffffffffffffffffffffffffffffffffffffff168152602001908152602001600020600082825461279b9190614697565b925050819055506002600083815260200190815260200160002060006101000a81549073ffffffffffffffffffffffffffffffffffffffff021916905581600073ffffffffffffffffffffffffffffffffffffffff168273ffffffffffffffffffffffffffffffffffffffff167fddf252ad1be2c89b69c2b068fc378daa952ba7f163c4a11628f55a4df523b3ef60405160405180910390a461284081600084612722565b5050565b60006128658473ffffffffffffffffffffffffffffffffffffffff16612e91565b156129be578373ffffffffffffffffffffffffffffffffffffffff1663150b7a0261288e611c0a565b8786866040518563ffffffff1660e01b81526004016128b09493929190614a49565b6020604051808303816000875af19250505080156128ec57506040513d601f19601f820116820180604052508101906128e99190614aaa565b60015b61296e573d806000811461291c576040519150601f19603f3d011682016040523d82523d6000602084013e612921565b606091505b506000815103612966576040517f08c379a000000000000000000000000000000000000000000000000000000000815260040161295d9061486b565b60405180910390fd5b805181602001fd5b63150b7a0260e01b7bffffffffffffffffffffffffffffffffffffffffffffffffffffffff1916817bffffffffffffffffffffffffffffffffffffffffffffffffffffffff1916149150506129c3565b600190505b949350505050565b6129d58383612eb4565b6129e26000848484612844565b612a21576040517f08c379a0000000000000000000000000000000000000000000000000000000008152600401612a189061486b565b60405180910390fd5b505050565b606060008203612a6d576040518060400160405280600181526020017f30000000000000000000000000000000000000000000000000000000000000008152509050612b81565b600082905060005b60008214612a9f578080612a8890613f59565b915050600a82612a989190614b06565b9150612a75565b60008167ffffffffffffffff811115612abb57612aba6134ec565b5b6040519080825280601f01601f191660200182016040528015612aed5781602001600182028036833780820191505090505b5090505b60008514612b7a57600182612b069190614697565b9150600a85612b159190614b37565b6030612b2191906146cb565b60f81b818381518110612b3757612b36613efb565b5b60200101907effffffffffffffffffffffffffffffffffffffffffffffffffffffffffffff1916908160001a905350600a85612b739190614b06565b9450612af1565b8093505050505b919050565b505050565b600f805490506010600083815260200190815260200160002081905550600f81908060018154018082558091505060019003906000526020600020016000909190919091505550565b60006001612be184610fc9565b612beb9190614697565b90506000600e6000848152602001908152602001600020549050818114612cd0576000600d60008673ffffffffffffffffffffffffffffffffffffffff1673ffffffffffffffffffffffffffffffffffffffff168152602001908152602001600020600084815260200190815260200160002054905080600d60008773ffffffffffffffffffffffffffffffffffffffff1673ffffffffffffffffffffffffffffffffffffffff16815260200190815260200160002060008481526020019081526020016000208190555081600e600083815260200190815260200160002081905550505b600e600084815260200190815260200160002060009055600d60008573ffffffffffffffffffffffffffffffffffffffff1673ffffffffffffffffffffffffffffffffffffffff16815260200190815260200160002060008381526020019081526020016000206000905550505050565b60006001600f80549050612d559190614697565b90506000601060008481526020019081526020016000205490506000600f8381548110612d8557612d84613efb565b5b9060005260206000200154905080600f8381548110612da757612da6613efb565b5b90600052602060002001819055508160106000838152602001908152602001600020819055506010600085815260200190815260200160002060009055600f805480612df657612df5614b68565b5b6001900381819060005260206000200160009055905550505050565b6000612e1d83610fc9565b905081600d60008573ffffffffffffffffffffffffffffffffffffffff1673ffffffffffffffffffffffffffffffffffffffff16815260200190815260200160002060008381526020019081526020016000208190555080600e600084815260200190815260200160002081905550505050565b6000808273ffffffffffffffffffffffffffffffffffffffff163b119050919050565b600073ffffffffffffffffffffffffffffffffffffffff168273ffffffffffffffffffffffffffffffffffffffff1603612f23576040517f08c379a0000000000000000000000000000000000000000000000000000000008152600401612f1a90614be3565b60405180910390fd5b612f2c81611b9e565b15612f6c576040517f08c379a0000000000000000000000000000000000000000000000000000000008152600401612f6390614c4f565b60405180910390fd5b612f7860008383612610565b6001600360008473ffffffffffffffffffffffffffffffffffffffff1673ffffffffffffffffffffffffffffffffffffffff1681526020019081526020016000206000828254612fc891906146cb565b92505081905550816002600083815260200190815260200160002060006101000a81548173ffffffffffffffffffffffffffffffffffffffff021916908373ffffffffffffffffffffffffffffffffffffffff160217905550808273ffffffffffffffffffffffffffffffffffffffff16600073ffffffffffffffffffffffffffffffffffffffff167fddf252ad1be2c89b69c2b068fc378daa952ba7f163c4a11628f55a4df523b3ef60405160405180910390a461308960008383612722565b5050565b60405180608001604052806000815260200160008152602001600073ffffffffffffffffffffffffffffffffffffffff1681526020016000151581525090565b5080546130d990613aeb565b6000825580601f106130eb575061310a565b601f0160209004906000526020600020908101906131099190613193565b5b50565b82805461311990613aeb565b90600052602060002090601f01602090048101928261313b5760008555613182565b82601f1061315457805160ff1916838001178555613182565b82800160010185558215613182579182015b82811115613181578251825591602001919060010190613166565b5b50905061318f9190613193565b5090565b5b808211156131ac576000816000905550600101613194565b5090565b6000604051905090565b600080fd5b600080fd5b60007fffffffff0000000000000000000000000000000000000000000000000000000082169050919050565b6131f9816131c4565b811461320457600080fd5b50565b600081359050613216816131f0565b92915050565b600060208284031215613232576132316131ba565b5b600061324084828501613207565b91505092915050565b60008115159050919050565b61325e81613249565b82525050565b60006020820190506132796000830184613255565b92915050565b600081519050919050565b600082825260208201905092915050565b60005b838110156132b957808201518184015260208101905061329e565b838111156132c8576000848401525b50505050565b6000601f19601f8301169050919050565b60006132ea8261327f565b6132f4818561328a565b935061330481856020860161329b565b61330d816132ce565b840191505092915050565b6000602082019050818103600083015261333281846132df565b905092915050565b6000819050919050565b61334d8161333a565b811461335857600080fd5b50565b60008135905061336a81613344565b92915050565b600060208284031215613386576133856131ba565b5b60006133948482850161335b565b91505092915050565b600073ffffffffffffffffffffffffffffffffffffffff82169050919050565b60006133c88261339d565b9050919050565b6133d8816133bd565b82525050565b60006020820190506133f360008301846133cf565b92915050565b613402816133bd565b811461340d57600080fd5b50565b60008135905061341f816133f9565b92915050565b6000806040838503121561343c5761343b6131ba565b5b600061344a85828601613410565b925050602061345b8582860161335b565b9150509250929050565b61346e8161333a565b82525050565b60006020820190506134896000830184613465565b92915050565b6000806000606084860312156134a8576134a76131ba565b5b60006134b686828701613410565b93505060206134c786828701613410565b92505060406134d88682870161335b565b9150509250925092565b600080fd5b600080fd5b7f4e487b7100000000000000000000000000000000000000000000000000000000600052604160045260246000fd5b613524826132ce565b810181811067ffffffffffffffff82111715613543576135426134ec565b5b80604052505050565b60006135566131b0565b9050613562828261351b565b919050565b600067ffffffffffffffff821115613582576135816134ec565b5b61358b826132ce565b9050602081019050919050565b82818337600083830152505050565b60006135ba6135b584613567565b61354c565b9050828152602081018484840111156135d6576135d56134e7565b5b6135e1848285613598565b509392505050565b600082601f8301126135fe576135fd6134e2565b5b813561360e8482602086016135a7565b91505092915050565b60006020828403121561362d5761362c6131ba565b5b600082013567ffffffffffffffff81111561364b5761364a6131bf565b5b613657848285016135e9565b91505092915050565b600081519050919050565b600082825260208201905092915050565b6000819050602082019050919050565b6136958161333a565b82525050565b6136a4816133bd565b82525050565b6136b381613249565b82525050565b6080820160008201516136cf600085018261368c565b5060208201516136e2602085018261368c565b5060408201516136f5604085018261369b565b50606082015161370860608501826136aa565b50505050565b600061371a83836136b9565b60808301905092915050565b6000602082019050919050565b600061373e82613660565b613748818561366b565b93506137538361367c565b8060005b8381101561378457815161376b888261370e565b975061377683613726565b925050600181019050613757565b5085935050505092915050565b600060208201905081810360008301526137ab8184613733565b905092915050565b6000602082840312156137c9576137c86131ba565b5b60006137d784828501613410565b91505092915050565b600080604083850312156137f7576137f66131ba565b5b60006138058582860161335b565b92505060206138168582860161335b565b9150509250929050565b61382981613249565b811461383457600080fd5b50565b60008135905061384681613820565b92915050565b60008060408385031215613863576138626131ba565b5b600061387185828601613410565b925050602061388285828601613837565b9150509250929050565b600067ffffffffffffffff8211156138a7576138a66134ec565b5b6138b0826132ce565b9050602081019050919050565b60006138d06138cb8461388c565b61354c565b9050828152602081018484840111156138ec576138eb6134e7565b5b6138f7848285613598565b509392505050565b600082601f830112613914576139136134e2565b5b81356139248482602086016138bd565b91505092915050565b60008060008060808587031215613947576139466131ba565b5b600061395587828801613410565b945050602061396687828801613410565b93505060406139778782880161335b565b925050606085013567ffffffffffffffff811115613998576139976131bf565b5b6139a4878288016138ff565b91505092959194509250565b600080604083850312156139c7576139c66131ba565b5b600083013567ffffffffffffffff8111156139e5576139e46131bf565b5b6139f1858286016135e9565b9250506020613a028582860161335b565b9150509250929050565b608082016000820151613a22600085018261368c565b506020820151613a35602085018261368c565b506040820151613a48604085018261369b565b506060820151613a5b60608501826136aa565b50505050565b6000608082019050613a766000830184613a0c565b92915050565b60008060408385031215613a9357613a926131ba565b5b6000613aa185828601613410565b9250506020613ab285828601613410565b9150509250929050565b7f4e487b7100000000000000000000000000000000000000000000000000000000600052602260045260246000fd5b60006002820490506001821680613b0357607f821691505b602082108103613b1657613b15613abc565b5b50919050565b7f4552433732313a20617070726f76656420717565727920666f72206e6f6e657860008201527f697374656e7420746f6b656e0000000000000000000000000000000000000000602082015250565b6000613b78602c8361328a565b9150613b8382613b1c565b604082019050919050565b60006020820190508181036000830152613ba781613b6b565b9050919050565b7f4552433732313a20617070726f76616c20746f2063757272656e74206f776e6560008201527f7200000000000000000000000000000000000000000000000000000000000000602082015250565b6000613c0a60218361328a565b9150613c1582613bae565b604082019050919050565b60006020820190508181036000830152613c3981613bfd565b9050919050565b7f4552433732313a20617070726f76652063616c6c6572206973206e6f74206f7760008201527f6e6572206e6f7220617070726f76656420666f7220616c6c0000000000000000602082015250565b6000613c9c60388361328a565b9150613ca782613c40565b604082019050919050565b60006020820190508181036000830152613ccb81613c8f565b9050919050565b7f4552433732313a207472616e736665722063616c6c6572206973206e6f74206f60008201527f776e6572206e6f7220617070726f766564000000000000000000000000000000602082015250565b6000613d2e60318361328a565b9150613d3982613cd2565b604082019050919050565b60006020820190508181036000830152613d5d81613d21565b9050919050565b7f596f752063616e6e6f742062757920796f7572206f776e20746f6b656e000000600082015250565b6000613d9a601d8361328a565b9150613da582613d64565b602082019050919050565b60006020820190508181036000830152613dc981613d8d565b9050919050565b7f507269636520646f6573206e6f74206d61746368000000000000000000000000600082015250565b6000613e0660148361328a565b9150613e1182613dd0565b602082019050919050565b60006020820190508181036000830152613e3581613df9565b9050919050565b7f496e646578206f7574206f6620626f756e647300000000000000000000000000600082015250565b6000613e7260138361328a565b9150613e7d82613e3c565b602082019050919050565b60006020820190508181036000830152613ea181613e65565b9050919050565b600081905092915050565b6000613ebe8261327f565b613ec88185613ea8565b9350613ed881856020860161329b565b80840191505092915050565b6000613ef08284613eb3565b915081905092915050565b7f4e487b7100000000000000000000000000000000000000000000000000000000600052603260045260246000fd5b7f4e487b7100000000000000000000000000000000000000000000000000000000600052601160045260246000fd5b6000613f648261333a565b91507fffffffffffffffffffffffffffffffffffffffffffffffffffffffffffffffff8203613f9657613f95613f2a565b5b600182019050919050565b7f4552433732313a206f776e657220717565727920666f72206e6f6e657869737460008201527f656e7420746f6b656e0000000000000000000000000000000000000000000000602082015250565b6000613ffd60298361328a565b915061400882613fa1565b604082019050919050565b6000602082019050818103600083015261402c81613ff0565b9050919050565b7f4552433732313a2062616c616e636520717565727920666f7220746865207a6560008201527f726f206164647265737300000000000000000000000000000000000000000000602082015250565b600061408f602a8361328a565b915061409a82614033565b604082019050919050565b600060208201905081810360008301526140be81614082565b9050919050565b7f4f776e61626c653a2063616c6c6572206973206e6f7420746865206f776e6572600082015250565b60006140fb60208361328a565b9150614106826140c5565b602082019050919050565b6000602082019050818103600083015261412a816140ee565b9050919050565b7f596f7520617265206e6f7420746865206f776e6572206f66207468697320746f60008201527f6b656e0000000000000000000000000000000000000000000000000000000000602082015250565b600061418d60238361328a565b915061419882614131565b604082019050919050565b600060208201905081810360008301526141bc81614180565b9050919050565b7f507269636520646f6573206e6f74206d61746368206c697374696e672070726960008201527f6365000000000000000000000000000000000000000000000000000000000000602082015250565b600061421f60228361328a565b915061422a826141c3565b604082019050919050565b6000602082019050818103600083015261424e81614212565b9050919050565b7f546f6b656e20697320616c7265616479206c6973746564000000000000000000600082015250565b600061428b60178361328a565b915061429682614255565b602082019050919050565b600060208201905081810360008301526142ba8161427e565b9050919050565b7f5072696365206d7573742062652067726561746572207468616e203000000000600082015250565b60006142f7601c8361328a565b9150614302826142c1565b602082019050919050565b60006020820190508181036000830152614326816142ea565b9050919050565b7f546f6b656e2055524920616c7265616479206578697374730000000000000000600082015250565b600061436360188361328a565b915061436e8261432d565b602082019050919050565b6000602082019050818103600083015261439281614356565b9050919050565b7f45524337323155524953746f726167653a2055524920717565727920666f722060008201527f6e6f6e6578697374656e7420746f6b656e000000000000000000000000000000602082015250565b60006143f560318361328a565b915061440082614399565b604082019050919050565b60006020820190508181036000830152614424816143e8565b9050919050565b60006144378285613eb3565b91506144438284613eb3565b91508190509392505050565b7f4f776e61626c653a206e6577206f776e657220697320746865207a65726f206160008201527f6464726573730000000000000000000000000000000000000000000000000000602082015250565b60006144ab60268361328a565b91506144b68261444f565b604082019050919050565b600060208201905081810360008301526144da8161449e565b9050919050565b7f4552433732313a206f70657261746f7220717565727920666f72206e6f6e657860008201527f697374656e7420746f6b656e0000000000000000000000000000000000000000602082015250565b600061453d602c8361328a565b9150614548826144e1565b604082019050919050565b6000602082019050818103600083015261456c81614530565b9050919050565b7f4552433732313a207472616e736665722066726f6d20696e636f72726563742060008201527f6f776e6572000000000000000000000000000000000000000000000000000000602082015250565b60006145cf60258361328a565b91506145da82614573565b604082019050919050565b600060208201905081810360008301526145fe816145c2565b9050919050565b7f4552433732313a207472616e7366657220746f20746865207a65726f2061646460008201527f7265737300000000000000000000000000000000000000000000000000000000602082015250565b600061466160248361328a565b915061466c82614605565b604082019050919050565b6000602082019050818103600083015261469081614654565b9050919050565b60006146a28261333a565b91506146ad8361333a565b9250828210156146c0576146bf613f2a565b5b828203905092915050565b60006146d68261333a565b91506146e18361333a565b9250827fffffffffffffffffffffffffffffffffffffffffffffffffffffffffffffffff0382111561471657614715613f2a565b5b828201905092915050565b7f436f756e7465723a2064656372656d656e74206f766572666c6f770000000000600082015250565b6000614757601b8361328a565b915061476282614721565b602082019050919050565b600060208201905081810360008301526147868161474a565b9050919050565b7f4552433732313a20617070726f766520746f2063616c6c657200000000000000600082015250565b60006147c360198361328a565b91506147ce8261478d565b602082019050919050565b600060208201905081810360008301526147f2816147b6565b9050919050565b7f4552433732313a207472616e7366657220746f206e6f6e20455243373231526560008201527f63656976657220696d706c656d656e7465720000000000000000000000000000602082015250565b600061485560328361328a565b9150614860826147f9565b604082019050919050565b6000602082019050818103600083015261488481614848565b9050919050565b7f45524337323155524953746f726167653a2055524920736574206f66206e6f6e60008201527f6578697374656e7420746f6b656e000000000000000000000000000000000000602082015250565b60006148e7602e8361328a565b91506148f28261488b565b604082019050919050565b60006020820190508181036000830152614916816148da565b9050919050565b60006080820190506149326000830187613465565b61493f6020830186613465565b61494c60408301856133cf565b6149596060830184613255565b95945050505050565b7f4552433732314d657461646174613a2055524920717565727920666f72206e6f60008201527f6e6578697374656e7420746f6b656e0000000000000000000000000000000000602082015250565b60006149be602f8361328a565b91506149c982614962565b604082019050919050565b600060208201905081810360008301526149ed816149b1565b9050919050565b600081519050919050565b600082825260208201905092915050565b6000614a1b826149f4565b614a2581856149ff565b9350614a3581856020860161329b565b614a3e816132ce565b840191505092915050565b6000608082019050614a5e60008301876133cf565b614a6b60208301866133cf565b614a786040830185613465565b8181036060830152614a8a8184614a10565b905095945050505050565b600081519050614aa4816131f0565b92915050565b600060208284031215614ac057614abf6131ba565b5b6000614ace84828501614a95565b91505092915050565b7f4e487b7100000000000000000000000000000000000000000000000000000000600052601260045260246000fd5b6000614b118261333a565b9150614b1c8361333a565b925082614b2c57614b2b614ad7565b5b828204905092915050565b6000614b428261333a565b9150614b4d8361333a565b925082614b5d57614b5c614ad7565b5b828206905092915050565b7f4e487b7100000000000000000000000000000000000000000000000000000000600052603160045260246000fd5b7f4552433732313a206d696e7420746f20746865207a65726f2061646472657373600082015250565b6000614bcd60208361328a565b9150614bd882614b97565b602082019050919050565b60006020820190508181036000830152614bfc81614bc0565b9050919050565b7f4552433732313a20746f6b656e20616c7265616479206d696e74656400000000600082015250565b6000614c39601c8361328a565b9150614c4482614c03565b602082019050919050565b60006020820190508181036000830152614c6881614c2c565b905091905056fea2646970667358221220359f62265460923d5020356e3a5541ca4cc50a3a2637f4026d67852947ad45be64736f6c634300080e0033",
  "immutableReferences": {},
  "source": "// SPDX-License-Identifier: MIT\r\npragma solidity >=0.4.22 <0.9.0;\r\n\r\nimport \"@openzeppelin/contracts/token/ERC721/extensions/ERC721URIStorage.sol\";\r\nimport \"@openzeppelin/contracts/utils/Counters.sol\";\r\nimport \"@openzeppelin/contracts/access/Ownable.sol\";\r\n\r\ncontract NftMarket is ERC721URIStorage, Ownable {\r\n    using Counters for Counters.Counter;\r\n\r\n    struct Token {\r\n        uint256 tokenId;\r\n        uint256 price;\r\n        address creator;\r\n        bool isListed;\r\n    }\r\n\r\n    uint256 public listingPrice = 0.025 ether;\r\n\r\n    Counters.Counter private _listedTokens;\r\n    Counters.Counter private _tokenIds;\r\n\r\n    mapping(string => bool) private _usedTokenURIs;\r\n    mapping(uint256 => Token) private _idToToken;\r\n\r\n    mapping(address => mapping(uint256 => uint256)) private _ownedTokens;\r\n    mapping(uint256 => uint256) private _idToOwnedIndex;\r\n\r\n    uint256[] private _allTokens;\r\n    mapping(uint256 => uint256) private _idToTokenIndex;\r\n\r\n    event TokenCreated(\r\n        uint256 tokenId,\r\n        uint256 price,\r\n        address creator,\r\n        bool isListed\r\n    );\r\n\r\n    constructor() ERC721(\"CreaturesNFT\", \"CNFT\") {}\r\n\r\n    function setListingPrice(uint256 newPrice) external onlyOwner {\r\n        require(newPrice > 0, \"Price must be greater than 0\");\r\n        listingPrice = newPrice;\r\n    }\r\n\r\n    function getToken(uint256 tokenId) public view returns (Token memory) {\r\n        return _idToToken[tokenId];\r\n    }\r\n\r\n    function listedTokensCount() public view returns (uint256) {\r\n        return _listedTokens.current();\r\n    }\r\n\r\n    function tokenURIExists(string memory tokenURI) public view returns (bool) {\r\n        return _usedTokenURIs[tokenURI];\r\n    }\r\n\r\n    function totalSupply() public view returns (uint256) {\r\n        return _allTokens.length;\r\n    }\r\n\r\n    function getTokenByIndex(uint256 index) public view returns (uint256) {\r\n        require(index < totalSupply(), \"Index out of bounds\");\r\n        return _allTokens[index];\r\n    }\r\n\r\n    function getTokenByOwnerIndex(address owner, uint256 index)\r\n        public\r\n        view\r\n        returns (uint256)\r\n    {\r\n        require(index < ERC721.balanceOf(owner), \"Index out of bounds\");\r\n        return _ownedTokens[owner][index];\r\n    }\r\n\r\n    function getAllTokensOnSale() public view returns (Token[] memory) {\r\n        uint256 allTokensCount = totalSupply();\r\n        uint256 currentIndex = 0;\r\n        Token[] memory tokens = new Token[](_listedTokens.current());\r\n\r\n        for (uint256 i = 0; i < allTokensCount; i++) {\r\n            uint256 tokenId = getTokenByIndex(i);\r\n            Token storage token = _idToToken[tokenId];\r\n\r\n            if (token.isListed) {\r\n                tokens[currentIndex] = token;\r\n                currentIndex++;\r\n            }\r\n        }\r\n\r\n        return tokens;\r\n    }\r\n\r\n    function getOwnedTokens() public view returns (Token[] memory) {\r\n        uint256 ownedTokensCount = ERC721.balanceOf(msg.sender);\r\n        Token[] memory tokens = new Token[](ownedTokensCount);\r\n\r\n        for (uint256 i = 0; i < ownedTokensCount; i++) {\r\n            uint256 tokenId = getTokenByOwnerIndex(msg.sender, i);\r\n            Token storage token = _idToToken[tokenId];\r\n\r\n            tokens[i] = token;\r\n        }\r\n\r\n        return tokens;\r\n    }\r\n\r\n    function burnToken (uint256 tokenId) public {\r\n        require(ERC721.ownerOf(tokenId) == msg.sender, \"You are not the owner of this token\");\r\n        _burn(tokenId);\r\n    }\r\n\r\n    function mintToken(string memory tokenURI, uint256 price)\r\n        public\r\n        payable\r\n        returns (uint256)\r\n    {\r\n        require(!tokenURIExists(tokenURI), \"Token URI already exists\");\r\n        require(\r\n            msg.value == listingPrice,\r\n            \"Price does not match listing price\"\r\n        );\r\n\r\n        _tokenIds.increment();\r\n        _listedTokens.increment();\r\n\r\n        uint256 tokenId = _tokenIds.current();\r\n\r\n        _safeMint(msg.sender, tokenId);\r\n        _setTokenURI(tokenId, tokenURI);\r\n\r\n        _usedTokenURIs[tokenURI] = true;\r\n\r\n        _createToken(tokenId, price);\r\n\r\n        return tokenId;\r\n    }\r\n\r\n    function buyToken(uint256 tokenId) public payable {\r\n        uint256 price = _idToToken[tokenId].price;\r\n        address owner = ERC721.ownerOf(tokenId);\r\n\r\n        require(owner != msg.sender, \"You cannot buy your own token\");\r\n        require(msg.value == price, \"Price does not match\");\r\n\r\n        _idToToken[tokenId].isListed = false;\r\n        _listedTokens.decrement();\r\n\r\n        _transfer(owner, msg.sender, tokenId);\r\n        payable(owner).transfer(msg.value);\r\n    }\r\n\r\n    function listToken(uint256 tokenId, uint256 newPrice) public payable {\r\n        require(\r\n            ERC721.ownerOf(tokenId) == msg.sender,\r\n            \"You are not the owner of this token\"\r\n        );\r\n        require(\r\n            msg.value == listingPrice,\r\n            \"Price does not match listing price\"\r\n        );\r\n        require(!_idToToken[tokenId].isListed, \"Token is already listed\");\r\n\r\n        _idToToken[tokenId].isListed = true;\r\n        _idToToken[tokenId].price = newPrice;\r\n        _listedTokens.increment();\r\n    }\r\n\r\n    function _createToken(uint256 tokenId, uint256 price) private {\r\n        require(price > 0, \"Price must be greater than 0\");\r\n\r\n        _idToToken[tokenId] = Token(tokenId, price, msg.sender, true);\r\n\r\n        emit TokenCreated(tokenId, price, msg.sender, true);\r\n    }\r\n\r\n    function _beforeTokenTransfer(\r\n        address from,\r\n        address to,\r\n        uint256 tokenId\r\n    ) internal virtual override {\r\n        super._beforeTokenTransfer(from, to, tokenId);\r\n\r\n        if (from == address(0)) {\r\n            _addTokenToAllTokens(tokenId);\r\n        } else if (from != to) {\r\n            _removeTokenFromOwner(from, tokenId);\r\n        }\r\n\r\n        if (to == address(0)) {\r\n            _removeTokenFromAllTokens(tokenId);\r\n        } else if (to != from) {\r\n            _addTokenToOwner(to, tokenId);\r\n        }\r\n    }\r\n\r\n    function _addTokenToAllTokens(uint256 tokenId) private {\r\n        _idToTokenIndex[tokenId] = _allTokens.length;\r\n        _allTokens.push(tokenId);\r\n    }\r\n\r\n    function _addTokenToOwner(address to, uint256 tokenId) private {\r\n        uint256 length = ERC721.balanceOf(to);\r\n        _ownedTokens[to][length] = tokenId;\r\n        _idToOwnedIndex[tokenId] = length;\r\n    }\r\n\r\n    function _removeTokenFromOwner(address from, uint256 tokenId) private {\r\n        uint256 lastIndex = ERC721.balanceOf(from) - 1;\r\n        uint256 tokenIndex = _idToOwnedIndex[tokenId];\r\n\r\n        if (tokenIndex != lastIndex) {\r\n            uint256 lastTokenId = _ownedTokens[from][lastIndex];\r\n\r\n            _ownedTokens[from][tokenIndex] = lastTokenId;\r\n            _idToOwnedIndex[lastTokenId] = tokenIndex;\r\n        }\r\n\r\n        delete _idToOwnedIndex[tokenId];\r\n        delete _ownedTokens[from][lastIndex];\r\n    }\r\n\r\n    function _removeTokenFromAllTokens(uint256 tokenId) private {\r\n        uint256 lastIndex = _allTokens.length - 1;\r\n        uint256 tokenIndex = _idToTokenIndex[tokenId];\r\n        uint256 lastTokenId = _allTokens[lastIndex];\r\n\r\n        _allTokens[tokenIndex] = lastTokenId;\r\n        _idToTokenIndex[lastTokenId] = tokenIndex;\r\n\r\n        delete _idToTokenIndex[tokenId];\r\n        _allTokens.pop();\r\n    }\r\n}\r\n",
  "sourcePath": "C:\\Users\\jomon\\Desktop\\Doppler\\NEXT\\Next + Solidity + TS\\nft-marketplace\\contracts\\NftMarket.sol",
  "compiler": {
    "name": "solc",
    "version": "0.8.14+commit.80d49f37.Emscripten.clang"
  },
  "schemaVersion": "3.4.7",
  "updatedAt": "2022-06-12T15:27:49.288Z",
  "networkType": "ethereum",
  "devdoc": {
    "kind": "dev",
    "methods": {
      "approve(address,uint256)": {
        "details": "See {IERC721-approve}."
      },
      "balanceOf(address)": {
        "details": "See {IERC721-balanceOf}."
      },
      "getApproved(uint256)": {
        "details": "See {IERC721-getApproved}."
      },
      "isApprovedForAll(address,address)": {
        "details": "See {IERC721-isApprovedForAll}."
      },
      "name()": {
        "details": "See {IERC721Metadata-name}."
      },
      "owner()": {
        "details": "Returns the address of the current owner."
      },
      "ownerOf(uint256)": {
        "details": "See {IERC721-ownerOf}."
      },
      "renounceOwnership()": {
        "details": "Leaves the contract without owner. It will not be possible to call `onlyOwner` functions anymore. Can only be called by the current owner. NOTE: Renouncing ownership will leave the contract without an owner, thereby removing any functionality that is only available to the owner."
      },
      "safeTransferFrom(address,address,uint256)": {
        "details": "See {IERC721-safeTransferFrom}."
      },
      "safeTransferFrom(address,address,uint256,bytes)": {
        "details": "See {IERC721-safeTransferFrom}."
      },
      "setApprovalForAll(address,bool)": {
        "details": "See {IERC721-setApprovalForAll}."
      },
      "supportsInterface(bytes4)": {
        "details": "See {IERC165-supportsInterface}."
      },
      "symbol()": {
        "details": "See {IERC721Metadata-symbol}."
      },
      "tokenURI(uint256)": {
        "details": "See {IERC721Metadata-tokenURI}."
      },
      "transferFrom(address,address,uint256)": {
        "details": "See {IERC721-transferFrom}."
      },
      "transferOwnership(address)": {
        "details": "Transfers ownership of the contract to a new account (`newOwner`). Can only be called by the current owner."
      }
    },
    "version": 1
  },
  "userdoc": {
    "kind": "user",
    "methods": {},
    "version": 1
  }
}